:020000040800F2
:100000005008002029020008C1110008A50E0008B0
:10001000BF1100082F030008E512000800000000CF
:100020000000000000000000000000004112000875
:100030003103000800000000C3110008431200084B
:10004000430200084302000843020008430200087C
:10005000430200084302000833030008430200087B
:10006000430200084302000843020008430200085C
:10007000430200084302000843020008430200084C
:10008000430200084302000843020008430200083C
:10009000430200084302000843020008430200082C
:1000A000430200084302000843020008430200081C
:1000B000430200084302000843020008430200080C
:1000C00043020008430200084302000843020008FC
:1000D00043020008430200084302000843020008EC
:1000E00043020008430200084302000843020008DC
:1000F00043020008430200084302000843020008CC
:1001000043020008430200084302000843020008BB
:1001100043020008430200084302000843020008AB
:10012000430200084302000843020008430200089B
:10013000430200084302000843020008430200088B
:10014000430200084302000843020008430200087B
:10015000430200084302000843020008430200086B
:10016000430200084302000843020008430200085B
:100170004302000843020008430200080000000098
:10018000430200084302000800F002F800F03CF8C7
:100190000AA090E8000C82448344AAF10107DA45E2
:1001A00001D100F031F8AFF2090EBAE80F0013F0F8
:1001B000010F18BFFB1A43F0010318476C1200002F
:1001C0008C120000103A24BF78C878C1FAD85207C0
:1001D00024BF30C830C144BF04680C6070470000C1
:1001E0000023002400250026103A28BF78C1FBD840
:1001F000520728BF30C148BF0B6070471FB501F0E0
:10020000EDF81FBD10B510BD00F058F81146FFF70E
:10021000F5FF01F099F800F076F803B4FFF7F2FF6C
:1002200003BC00F07DF800000948804709480047FA
:10023000FEE7FEE7FEE7FEE7FEE7FEE7FEE7FEE796
:10024000FEE7FEE704480549054A064B70470000F3
:10025000D512000889010008500200205008002033
:1002600050040020500400204FF0000200B5134657
:1002700094469646203922BFA0E80C50A0E80C50C6
:10028000B1F12001BFF4F7AF090728BFA0E80C5077
:1002900048BF0CC05DF804EB890028BF40F8042B70
:1002A00008BF704748BF20F8022B11F0804F18BFDD
:1002B00000F8012B7047704770477047754600F093
:1002C0002BF8AE4605006946534620F007008546E8
:1002D00018B020B5FFF7B6FFBDE820404FF000068C
:1002E0004FF000074FF000084FF0000B21F007011E
:1002F000AC46ACE8C009ACE8C009ACE8C009ACE861
:10030000C0098D46704710B50446AFF30080204603
:10031000BDE81040FFF781BF00487047F0010020A2
:1003200001491820ABBEFEE7260002007047FEE739
:10033000704710B5012000F019F8BDE8104000F03A
:10034000E3BF000070B5044600F030F90546601CBC
:1003500002D004480078044400F028F9401BA04271
:10036000FAD370BDF000002070470000044910B5BA
:100370000A68024202D00860FFF7F6FF10BD0000D5
:10038000140401402DE9F04FDFF8EC910022012721
:10039000A9F1040B85B003254FF00F0C09F1040AF5
:1003A000ABF1040EE0E000BF07FA02F416EA040322
:1003B0007ED00E7906F00306012E01D0022E1FD149
:1003C00086680096560005FA06F80496009E26EA0E
:1003D00008060096D1F80C80049E08FA06F8009EE4
:1003E00048EA0608C0F80880466891F80480A643E9
:1003F000C8F3001808FA02F848EA0608C0F80480B2
:10040000D1F804806FEA0806B6070AD1C66AA64387
:10041000C8F3C00494403443C4620C79E443A40795
:100420000AD0C4684FEA420805FA08F6B4438E6859
:1004300006FA08F62643C6600C7904F00304022C81
:1004400011D1D40800EB84060296D6F82080540718
:10045000E60E0CFA06F428EA04080C69B440029E81
:1004600044EA0804346204685600029605FA06F667
:10047000B4430E7906F00308029E08FA06F848EA2B
:100480000408C0F800804C6814F4403F6BD03B4C2B
:10049000266E46F001062666246E22F0030604F05E
:1004A00001040094364C34440294A468960700E09A
:1004B00059E04FEA16780CFA08F6B443B0F1904FC1
:1004C00004D0304EB04203D101261BE0002619E0D3
:1004D0002D4EB04201D1022614E02C4EB04201D183
:1004E00003260FE02A4EB04201D104260AE0294E2D
:1004F000B04201D1052605E0274EB04201D10626C3
:1005000000E0072606FA08F62643029CA660D9F802
:1005100000404E46D1F804809C435FEAC82800D5CD
:100520001C433460DAF800405646D1F804809C43FE
:100530005FEA882800D51C433460DBF800405E4643
:10054000D1F804809C435FEA883800D51C433460AE
:10055000DEF800407646D1F804809C435FEAC83854
:1005600000D51C433460521C0B681E46D3407FF4F8
:100570001BAF05B000F012B80804014000100240A3
:10058000000001400004004800080048000C00483A
:1005900000100048001400480018004830BCBDE8B6
:1005A000C08F0AB1816170478162704701488068DD
:1005B00070470000F0000020024881680278114472
:1005C00081607047F0000020094810B501680024E0
:1005D00041F480710160032000F072F8002000F007
:1005E00009F808B1012401E000F026F8204610BD0A
:1005F0000020024070B50E4E05460024307898B1B8
:100600004FF47A71B1FBF0F00A490968B1FBF0F0E0
:1006100000F034FC40B9102D06D200222946501EAD
:1006200000F02EF8756000E00124204670BD000047
:10063000F0000020FC000020094808B5016E41F0E0
:1006400001010166016E01F001010091816D41F02F
:1006500080518165806D00F08050009008BD0000E1
:1006600000100240002809DB00F01F020121914028
:100670004009800000F1E020C0F800117047000040
:10068000F0B40E4B1B680C46C3F30223C3F10705FD
:10069000042D00D90425191D072901D2002300E0EB
:1006A000DB1E012606FA05F1491E214099409E40B5
:1006B000761E16403143F0BC00F015BE0CED00E094
:1006C000064900F0070208684FF6FF03184040EAA9
:1006D0000220034A10430860704700000CED00E060
:1006E0000000FA051649B0F5007F0868C0F3412004
:1006F00009D0022805D0086820F4C06040F480606A
:100700000860002070470128FBD0086820F4C06012
:1007100040F4007008600B483222006850430A4AD7
:10072000B0FBF2F0401C00E0401E4A69520501D5C2
:100730000028F9D148694005E3D50320704700003F
:1007400000700040FC00002040420F00024800689A
:1007500000F4C0607047000000700040024801686B
:1007600041F48071016070470070004002480168E8
:1007700041F0040101607047001002402DE9F0478C
:100780000F4605006BD0494E306800F00700B842B4
:1007900009D2306820F0070038433060306800F03C
:1007A0000700B8425BD12878414C80070AD5A86879
:1007B000A16801F0F001884204D9A16821F0F0019C
:1007C0000143A1602878C0072CD06868032811D0A5
:1007D000022812D0216898B1490500293FDAA168A2
:1007E00021F003010143A160FFF7E0FE804641F2E2
:1007F000883910E021688901EFE721688903ECE777
:100800008907EAE7FFF7D2FEA0EB0801494502D9C4
:100810000320BDE8F087A068696800F00C00B0EB29
:10082000810FEFD1287880070AD5A868A16801F068
:10083000F001884204D2A16821F0F0010143A160D7
:10084000306800F00700B8420BD9306820F007008C
:1008500038433060306800F00700B84201D0012012
:10086000D7E72878400705D5A068E96820F4E0605C
:100870000843A0602878000706D5A068296920F4FD
:10088000605040EAC100A06000F01AF8A168094A6F
:10089000C1F30311515C01F01F01C8400649086013
:1008A00006480068BDE8F047FFF7A4BE00200240FC
:1008B00000100240E8130008FC000020F4000020B3
:1008C00070B52549002318468A68CC6812F00C02DE
:1008D00004F00306214C4FEA640509D00C2A05D028
:1008E000042A32D0082A00D1284670BD012E10D12A
:1008F0000B681B0704D4D1F89430C3F3032302E040
:100900000B68C3F30313164E56F82330DAB10C2AE2
:10091000EBD1C86800F00300022818D0032818D0D3
:100920001846CA68CB68C2F30212C3F306234343D6
:10093000521CB3FBF2F2C868C0F34160401C400097
:10094000B2FBF0F070BD184670BD204670BD204669
:10095000E7E72846E5E70000001002400024F40025
:10096000F81300082DE9F84304006FD0FD4DA86886
:1009700000F00C06E86800F003072078C00664D594
:1009800076B10C2E01D1012F0AD0A0690028286869
:100990007AD040F001002860FFF708FE80465DE055
:1009A0002868800702D5A0690028DED0216A28685F
:1009B000000703D5286800F0F00004E0D5F89400A3
:1009C000F02202EA1010814216D9084600F0FAFB24
:1009D00000283BD1286840F0080028602868216A78
:1009E00020F0F000084328606868E16920F47F4047
:1009F00040EA0120686016E0286840F0080028609E
:100A00002868216A20F0F000084328606868E169DE
:100A100020F47F4040EA0120686026B9206A00F097
:100A2000D1FB0028D5D1FFF74BFFA968CE4AC1F30F
:100A30000311515C01F01F01C840CC490860CC484B
:100A40000068FFF7D7FD00287ED12EE0CAE000BF86
:100A5000FFF7ACFDA0EB0800022876D828688007D5
:100A6000F6D5286840F0080028602868216A20F040
:100A7000F000084328606868E16920F47F4040EA9C
:100A80000120686011E0FFE720F001002860FFF717
:100A90008DFD804606E000BFFFF788FDA0EB080053
:100AA0000228DAD828688007F6D42078C00740D01A
:100AB000082E18D00C2E01D1032F14D06068B0F589
:100AC000803F17D0B0F5A02F286817D020F48030D1
:100AD0002860286820F4802028606068E0B1FFF773
:100AE00065FD804614E02868800322D560680028F0
:100AF00078D01EE0286840F48030EDE740F4802094
:100B00002860F7E7FFF752FDA0EB08006428A4D89F
:100B100028688003F6D50CE0FFF748FD804605E025
:100B2000FFF744FDA0EB0800642896D828688003EE
:100B3000F6D4207880073BD5042E11D00C2E01D19D
:100B4000022F0DD0E06801E086E1D6E00028286899
:100B50001ED040F480702860FFF728FD07460CE0A7
:100B6000286840050CD5E0680028C1D008E000BF27
:100B7000FFF71CFDC01B022893D828684005F7D555
:100B80006868217C20F0F85040EA016068600FE05E
:100B900020F480702860FFF709FD074605E000BFDC
:100BA000FFF704FDC01B0228B1D828684005F7D420
:100BB0002078000729D560690028D5F8940012D064
:100BC00040F00100C5F89400FFF7F0FC074604E090
:100BD000FFF7ECFCC01B022899D8D5F894008007D9
:100BE000F6D512E000E120F00100C5F89400FFF70F
:100BF000DDFC074605E000BFFFF7D8FCC01B02285C
:100C00007BD8D5F894008007F6D42078400766D5C5
:100C1000A86D0027C00008D4A86D40F08050A865DA
:100C2000A86D012700F08050009052480168C90566
:100C300012D40168814641F480710160FFF7B6FC6F
:100C4000804605E0FFF7B2FCA0EB0800022854D86C
:100C5000D9F80000C005F5D5A068012816D00528F0
:100C6000D5F8900017D020F00100C5F89000D5F815
:100C7000900020F0040000BFC5F89000A06841F289
:100C80008839C0B1FFF792FC80460FE0D5F890009C
:100C900040F00100F0E740F00400C5F89000F5E7EF
:100CA000FFF784FCA0EB0801494526D8D5F8900051
:100CB0008007F5D50EE0FFF779FC804606E000BF1F
:100CC000FFF774FCA0EB0801494516D8D5F8900051
:100CD0008007F5D41FB1A86D20F08050A865A06AE8
:100CE000F0B302280AD00C2E7ED0286820F0807045
:100CF0002860FFF75BFC0446B0E0ACE0E868E26A1D
:100D000000F00301914229D1216B00F0700209012A
:100D10001039914222D1626B00F4FE41B1EB022FF7
:100D20001CD1A26B00F40031072A01D0012200E09F
:100D30000022914212D1A18F00F4C0024908490556
:100D4000A1F50011914209D194F8401000F0C06063
:100D500049084906A1F1007181425ED00C2E0BE0DA
:100D600072E0000000100240E8130008FC000020C0
:100D7000F40000200070004079D02868400176D44B
:100D80002868C00073D4286820F080702860FFF7BE
:100D90000DFC064605E000BFFFF708FC801B02289B
:100DA00059D828688001F7D4D4E90B016FF00F02FD
:100DB00002EB01110843A18F5204490802EB415193
:100DC000626B41EA0221084394F840104FF07E42E2
:100DD000490802EB41610843A16B090940EA41401F
:100DE000E968244A114000E041E00843E8602868CF
:100DF00040F080702860E86840F08070E860FFF79D
:100E0000D5FB044605E000BFFFF7D0FB001B02281E
:100E100021D828688001F7D527E02868800124D4EC
:100E2000286840F080702860E86840F08070E860D2
:100E3000FFF7BCFB044604E0FFF7B8FB001B0228E9
:100E400009D828688001F7D50FE000BFFFF7AEFB97
:100E5000001B022802D90320BDE8F883286880011E
:100E6000F4D4E86804490840E8600020F4E7012071
:100E7000F2E700008C809DF9FCFFEEFE10B5401EED
:100E8000B0F1807F01D3012010BD4FF0E0246061FC
:100E90000F21601700F027FA0020A06107202061D1
:100EA000002010BDFEE700002DE9F04F87B01421AF
:100EB0006846FFF7D9F9BB48C16C41F01001C16425
:100EC000C16C01F010010591C16C41F00401C164D5
:100ED000C16C01F004010591C16C41F08001C16455
:100EE000C16C01F080010591C16C41F00101C16448
:100EF000C16C01F001010591C16C41F00201C164B6
:100F0000C16C01F002010591C16C41F00801C1649E
:100F1000C06C002200F0080005904AF20911A248B6
:100F2000FFF73FFB00220C21A048FFF73AFB01220C
:100F300051029F48FFF735FB00224FF400619C48A7
:100F4000FFF72FFB002280219A48FFF72AFBF420AD
:100F50000225CDE900050024032602940D20CDE9E9
:100F6000036069469048FFF70DFA0820009001AA37
:100F7000012082E8310069468B48FFF703FA4FF4FD
:100F80001050C701CDE90007694602948848FFF771
:100F9000F9F90720CDE90004694685480294FFF776
:100FA000F1F94FF4FC700090CDE901544FF00B08BB
:100FB000CDE9034869467E48FFF7E4F90120009037
:100FC0004FF48810CDE901046946B802FFF7DAF959
:100FD0002E208DE831006946B802FFF7D3F91020C2
:100FE000CDE9000769460294B802FFF7CBF948F251
:100FF000C0700090CDE90154CDE903486946B802BC
:10100000FFF7C0F94FF233200090CDE90154CDE94C
:10101000034869466548FFF7B5F901204FF0040918
:10102000CDE90090CDE9020669466048FFF7AAF9CC
:10103000E80100900120CDE90206019069465A4876
:10104000FFF7A0F928020090CDE901540D20CDE969
:10105000034069465448FFF795F94FF4B840CDE98D
:10106000000502AA4FF00A0A82E8500469464E4879
:10107000FFF788F94FF4204000900120CDE90104EA
:10108000039069464848FFF77DF9B0024FF0120B14
:10109000CDE9000B02AA694682E850024348FFF7F7
:1010A00071F94FF47F400090CDE90154CDE9034838
:1010B00069464048FFF766F94FF420600090012030
:1010C000CDE9010469463A480394FFF75BF9F00261
:1010D000CDE9000502AA694682E85004B802FFF78C
:1010E00051F91A20CDE9000502940520CDE90360ED
:1010F00069463048FFF746F9CDF80090CDE9017414
:1011000069462C48FFF73EF96020CDE90005012033
:10111000CDE902060720049069462648FFF732F918
:101120008020009001AA012082E8510069462148F0
:10113000FFF728F9082000900120CDE90104694655
:101140001A480394FFF71EF9C020CDE9000B02AA4C
:10115000694682E850021548FFF714F9E801CDE925
:101160000007694602941148FFF70CF9012000902E
:10117000CDE9010469460C480394FFF703F9009593
:10118000CDE9017469460848FFF7FCF800221146D2
:101190000620FFF775FA0620FFF764FA07B000F0A3
:1011A0000BB8000000100240001000480004004886
:1011B00000080048000C004830BCBDE8C08FFEE7C6
:1011C000FEE77047F8B51C4D06460024A86DC00028
:1011D00002D5FFF7BBFA0DE0A86D40F08050A8657E
:1011E000A86D00F080500090FFF7B0FAA96D21F0D3
:1011F0008051A965B0F5007F04D0802E07D94FF04B
:1012000003040AE0802E08D9A02E01D804E001D101
:10121000022402E0702E00D101240848016821F068
:10122000070121430160006800F00700A04201D0DF
:101230000120F8BD0020F8BD00100240002002404F
:101240007047FFF7B9B9000010B596B04421684661
:10125000FFF70AF8142111A8FFF706F84FF4007001
:10126000FFF740FA08B172B6FEE7FFF777FA1848C1
:1012700050F8901F21F01801016014200090012007
:101280000290002460210690CDE907410221CDE9BA
:101290000A100C9028200D900720CDE90E01684619
:1012A0001091FFF75FFB08B172B6FEE70F201190B7
:1012B0000320CDE912041494042111A81594FFF71A
:1012C0005DFA08B172B6FEE7FFF750FA16B010BD2E
:1012D000001002400248016841F47001016070474B
:1012E00088ED00E0FEE70907090E002804DB00F1A5
:1012F000E02080F80014704700F00F0000F1E020BB
:1013000080F8141D70470000054900204FF060422E
:1013100041F82020401C3C28FADB014800F026B8A8
:1013200000010020064A0749002000BF52F8203083
:1013300041F82030401C3C28F8DB024800F016B889
:101340000000002000010020FFF73EF9FFF77CFFBE
:10135000FFF7AAFDFFF7D8FF40F6B834FFF7E2FF2A
:101360002046FEF7EFFFFFF7CFFFF7E770B5054622
:10137000002000F00FF8002455F8240000F00AF8CF
:10138000641C3C2CF8DBBDE870404FF0FF3000F0EF
:1013900001B800002DE9F0410F4E054600244FF43E
:1013A00000484FF40057002D01DB002200E001222D
:1013B0006D0041463046FFF7F4F8012239463046C9
:1013C000FFF7EFF8002239463046FFF7EAF8641CD1
:1013D000202CE8DBBDE8F081001000484FF04070A1
:1013E000E1EE100A7047000000000000000000005D
:1013F0000102030406070809A0860100400D03004E
:10140000801A060000350C0040420F0080841E0048
:1014100000093D0000127A000024F40000366E013D
:101420000048E801006CDC024814000800000020BD
:1014300000010000C4010008481500080001002058
:1014400050070000E0010008FF0000E5FF0000E594
:10145000FF0000E5FF0000E5FF0000E5FF0000E5FC
:10146000FF0000E5FF0000E5FF0000E5FF0000E5EC
:10147000FF0000E5FF0000E5FF0000E5FF0000E5DC
:1014800000FF00E500FF00E5FF0000E5FF0000E5CC
:10149000FF0000E5FF0000E5FF0000E5FF0000E5BC
:1014A000FF0000E5FF0000E5FF0000E5FF0000E5AC
:1014B000FF0000E5FF0000E5FF0000E5FF0000E59C
:1014C000FF0000E5FF0000E5FF0000E5FF0000E58C
:1014D000FF0000E5FF0000E5FF0000E5FF0000E57C
:1014E000FF0000E5FF0000E5FF0000E5FF0000E56C
:1014F000FF0000E5FF0000E5FF0000E5FF0000E55C
:10150000FF0000E5FF0000E5FF0000E5FF0000E54B
:10151000FF0000E5FF0000E5FF0000E5FF0000E53B
:10152000FF0000E5FF0000E5FF0000E5FF0000E52B
:10153000FF0000E5FF0000E50100000010000000D2
:081540000000000000093D005D
:040000050800018965
:00000001FF
